{
    "contractName": "Bondable",
    "abi": [
        {
            "inputs": [],
            "stateMutability": "nonpayable",
            "type": "constructor"
        },
        {
            "anonymous": false,
            "inputs": [
                {
                    "indexed": true,
                    "internalType": "address",
                    "name": "underlying",
                    "type": "address"
                },
                {
                    "indexed": true,
                    "internalType": "uint256",
                    "name": "maturity",
                    "type": "uint256"
                },
                {
                    "indexed": true,
                    "internalType": "address",
                    "name": "bond",
                    "type": "address"
                },
                {
                    "indexed": false,
                    "internalType": "uint256",
                    "name": "amount",
                    "type": "uint256"
                },
                {
                    "indexed": false,
                    "internalType": "uint256",
                    "name": "mintedDebt",
                    "type": "uint256"
                }
            ],
            "name": "bondMinted",
            "type": "event"
        },
        {
            "anonymous": false,
            "inputs": [
                {
                    "indexed": true,
                    "internalType": "address",
                    "name": "underlying",
                    "type": "address"
                },
                {
                    "indexed": true,
                    "internalType": "uint256",
                    "name": "maturity",
                    "type": "uint256"
                },
                {
                    "indexed": true,
                    "internalType": "address",
                    "name": "bond",
                    "type": "address"
                },
                {
                    "indexed": false,
                    "internalType": "uint256",
                    "name": "amount",
                    "type": "uint256"
                },
                {
                    "indexed": false,
                    "internalType": "uint256",
                    "name": "redeemedDebt",
                    "type": "uint256"
                }
            ],
            "name": "bondRedeemed",
            "type": "event"
        },
        {
            "anonymous": false,
            "inputs": [
                {
                    "indexed": true,
                    "internalType": "address",
                    "name": "underlying",
                    "type": "address"
                },
                {
                    "indexed": true,
                    "internalType": "uint256",
                    "name": "maturity",
                    "type": "uint256"
                },
                {
                    "indexed": true,
                    "internalType": "address",
                    "name": "bond",
                    "type": "address"
                },
                {
                    "indexed": false,
                    "internalType": "uint256",
                    "name": "amount",
                    "type": "uint256"
                },
                {
                    "indexed": false,
                    "internalType": "uint256",
                    "name": "repaidDebt",
                    "type": "uint256"
                }
            ],
            "name": "bondRepaid",
            "type": "event"
        },
        {
            "anonymous": false,
            "inputs": [
                {
                    "indexed": true,
                    "internalType": "address",
                    "name": "underlying",
                    "type": "address"
                },
                {
                    "indexed": true,
                    "internalType": "uint256",
                    "name": "maturity",
                    "type": "uint256"
                },
                {
                    "indexed": true,
                    "internalType": "address",
                    "name": "bond",
                    "type": "address"
                },
                {
                    "indexed": false,
                    "internalType": "uint256",
                    "name": "maximumDebt",
                    "type": "uint256"
                },
                {
                    "indexed": false,
                    "internalType": "string",
                    "name": "name",
                    "type": "string"
                }
            ],
            "name": "marketCreated",
            "type": "event"
        },
        {
            "inputs": [],
            "name": "admin",
            "outputs": [
                {
                    "internalType": "address",
                    "name": "",
                    "type": "address"
                }
            ],
            "stateMutability": "view",
            "type": "function"
        },
        {
            "inputs": [
                {
                    "internalType": "address",
                    "name": "underlying",
                    "type": "address"
                },
                {
                    "internalType": "uint128",
                    "name": "maturity",
                    "type": "uint128"
                },
                {
                    "internalType": "uint256",
                    "name": "maximumDebt",
                    "type": "uint256"
                },
                {
                    "internalType": "uint256",
                    "name": "price",
                    "type": "uint256"
                },
                {
                    "internalType": "uint8",
                    "name": "decimals",
                    "type": "uint8"
                },
                {
                    "internalType": "string",
                    "name": "name",
                    "type": "string"
                },
                {
                    "internalType": "string",
                    "name": "symbol",
                    "type": "string"
                }
            ],
            "name": "createMarket",
            "outputs": [
                {
                    "internalType": "address",
                    "name": "",
                    "type": "address"
                }
            ],
            "stateMutability": "nonpayable",
            "type": "function"
        },
        {
            "inputs": [
                {
                    "internalType": "address",
                    "name": "",
                    "type": "address"
                },
                {
                    "internalType": "uint128",
                    "name": "",
                    "type": "uint128"
                }
            ],
            "name": "markets",
            "outputs": [
                {
                    "internalType": "uint256",
                    "name": "maximumDebt",
                    "type": "uint256"
                },
                {
                    "internalType": "uint256",
                    "name": "price",
                    "type": "uint256"
                },
                {
                    "internalType": "uint256",
                    "name": "mintedDebt",
                    "type": "uint256"
                },
                {
                    "internalType": "uint256",
                    "name": "repaidDebt",
                    "type": "uint256"
                },
                {
                    "internalType": "uint256",
                    "name": "redeemedDebt",
                    "type": "uint256"
                },
                {
                    "internalType": "address",
                    "name": "bond",
                    "type": "address"
                },
                {
                    "internalType": "string",
                    "name": "name",
                    "type": "string"
                }
            ],
            "stateMutability": "view",
            "type": "function"
        },
        {
            "inputs": [
                {
                    "internalType": "address",
                    "name": "underlying",
                    "type": "address"
                },
                {
                    "internalType": "uint128",
                    "name": "maturity",
                    "type": "uint128"
                },
                {
                    "internalType": "uint256",
                    "name": "amount",
                    "type": "uint256"
                }
            ],
            "name": "mint",
            "outputs": [
                {
                    "internalType": "uint256",
                    "name": "",
                    "type": "uint256"
                }
            ],
            "stateMutability": "nonpayable",
            "type": "function"
        },
        {
            "inputs": [
                {
                    "internalType": "address",
                    "name": "underlying",
                    "type": "address"
                },
                {
                    "internalType": "uint128",
                    "name": "maturity",
                    "type": "uint128"
                },
                {
                    "internalType": "uint256",
                    "name": "amount",
                    "type": "uint256"
                }
            ],
            "name": "redeem",
            "outputs": [
                {
                    "internalType": "uint256",
                    "name": "",
                    "type": "uint256"
                }
            ],
            "stateMutability": "nonpayable",
            "type": "function"
        },
        {
            "inputs": [
                {
                    "internalType": "address",
                    "name": "underlying",
                    "type": "address"
                },
                {
                    "internalType": "uint128",
                    "name": "maturity",
                    "type": "uint128"
                },
                {
                    "internalType": "uint256",
                    "name": "amount",
                    "type": "uint256"
                }
            ],
            "name": "repay",
            "outputs": [
                {
                    "internalType": "uint256",
                    "name": "",
                    "type": "uint256"
                }
            ],
            "stateMutability": "nonpayable",
            "type": "function"
        },
        {
            "inputs": [
                {
                    "internalType": "address",
                    "name": "newAdmin",
                    "type": "address"
                }
            ],
            "name": "transferAdmin",
            "outputs": [
                {
                    "internalType": "address",
                    "name": "",
                    "type": "address"
                }
            ],
            "stateMutability": "nonpayable",
            "type": "function"
        }
    ],
    "bytecode": "608060405234801561001057600080fd5b50600080546001600160a01b031916331790556125d6806100326000396000f3fe60806040523480156200001157600080fd5b5060043610620000875760003560e01c8063dcee8a6c1162000062578063dcee8a6c14620000fd578063f11324d21462000114578063f6e384e41462000140578063f851a440146200015757600080fd5b80633c3d81eb146200008c57806375829def14620000b6578063c264cfdc14620000e6575b600080fd5b620000a36200009d36600462000f94565b6200016b565b6040519081526020015b60405180910390f35b620000cd620000c736600462000fd5565b6200045c565b6040516001600160a01b039091168152602001620000ad565b620000a3620000f736600462000f94565b620004d5565b620000cd6200010e366004620010a5565b620006e7565b6200012b6200012536600462001162565b62000961565b604051620000ad9796959493929190620011ea565b620000a36200015136600462000f94565b62000a43565b600054620000cd906001600160a01b031681565b6001600160a01b0380841660009081526001602081815260408084206001600160801b03881685528252808420815160e0810183528154815293810154928401929092526002820154908301526003810154606083015260048101546080830152600581015490931660a082015260068301805492938493909160c0840191620001f59062001238565b80601f0160208091040260200160405190810160405280929190818152602001828054620002239062001238565b8015620002745780601f10620002485761010080835404028352916020019162000274565b820191906000526020600020905b8154815290600101906020018083116200025657829003601f168201915b5050505050815250509050836001600160801b0316421015620002e95760405162461bcd60e51b815260206004820152602260248201527f626f6e64206d6174757269747920686173206e6f74206265656e207265616368604482015261195960f21b60648201526084015b60405180910390fd5b6000838260800151620002fd91906200128b565b90508160600151811115620003645760405162461bcd60e51b815260206004820152602660248201527f746f74616c206d61726b657420636c61696d20657863656564732064656274206044820152651c995c185a5960d21b6064820152608401620002e0565b60a0820151604051632770a7eb60e21b8152336004820152602481018690526001600160a01b0390911690639dc29fac90604401600060405180830381600087803b158015620003b357600080fd5b505af1158015620003c8573d6000803e3d6000fd5b50505050620003d986338662000d49565b6001600160a01b0386811660008181526001602090815260408083206001600160801b038b168085529083529281902060040186905560a087015181518a8152928301879052909416939192917f7a82f4d5637b0e35afe176d99e7a3ca77e99fb361ceeaf12c4e2b2e739132bc991015b60405180910390a45091949350505050565b600080546001600160a01b03163314620004b05760405162461bcd60e51b815260206004820152601460248201527339b2b73232b91036bab9ba1031329030b236b4b760611b6044820152606401620002e0565b50600080546001600160a01b0319166001600160a01b0383169081179091555b919050565b6001600160a01b0380841660009081526001602081815260408084206001600160801b03881685528252808420815160e0810183528154815293810154928401929092526002820154908301526003810154606083015260048101546080830152600581015490931660a082015260068301805492938493909160c08401916200055f9062001238565b80601f01602080910402602001604051908101604052809291908181526020018280546200058d9062001238565b8015620005de5780601f10620005b257610100808354040283529160200191620005de565b820191906000526020600020905b815481529060010190602001808311620005c057829003601f168201915b50505050508152505090506000838260600151620005fd91906200128b565b90508160400151811115620006645760405162461bcd60e51b815260206004820152602660248201527f63616e206e6f74207265706179206d6f72652064656274207468616e206973206044820152651b5a5b9d195960d21b6064820152608401620002e0565b6200067186338662000d49565b6001600160a01b0386811660008181526001602090815260408083206001600160801b038b168085529083529281902060030186905560a087015181518a8152928301879052909416939192917fca2af4f221fc78b7654a41e56bdc0c6856f9e16e4937ac1a9d7b68fafde209e091016200044a565b600080546001600160a01b031633146200073b5760405162461bcd60e51b815260206004820152601460248201527339b2b73232b91036bab9ba1031329030b236b4b760611b6044820152606401620002e0565b6001600160a01b03881660009081526001602090815260408083206001600160801b038b16845290915290205415620007af5760405162461bcd60e51b81526020600482015260156024820152744d61726b657420616c72656164792065786973747360581b6044820152606401620002e0565b60008383868a8c604051620007c49062000eb0565b620007d4959493929190620012a6565b604051809103906000f080158015620007f1573d6000803e3d6000fd5b5090506040518060e00160405280888152602001878152602001600081526020016000815260200160008152602001826001600160a01b0316815260200185815250600160008b6001600160a01b03166001600160a01b0316815260200190815260200160002060008a6001600160801b03166001600160801b03168152602001908152602001600020600082015181600001556020820151816001015560408201518160020155606082015181600301556080820151816004015560a08201518160050160006101000a8154816001600160a01b0302191690836001600160a01b0316021790555060c0820151816006019080519060200190620008f892919062000ebe565b50905050806001600160a01b0316886001600160801b03168a6001600160a01b03167f6ce035b0ee3b8e05e21551d8a5224ec59d6687f731561f788ea4d3ce97ca38748a886040516200094d92919062001302565b60405180910390a498975050505050505050565b60016020818152600093845260408085209091529183529120805491810154600282015460038301546004840154600585015460068601805495969495939492936001600160a01b039092169291620009ba9062001238565b80601f0160208091040260200160405190810160405280929190818152602001828054620009e89062001238565b801562000a395780601f1062000a0d5761010080835404028352916020019162000a39565b820191906000526020600020905b81548152906001019060200180831162000a1b57829003601f168201915b5050505050905087565b6001600160a01b0380841660009081526001602081815260408084206001600160801b03881685528252808420815160e0810183528154815293810154928401929092526002820154908301526003810154606083015260048101546080830152600581015490931660a082015260068301805492938493909160c084019162000acd9062001238565b80601f016020809104026020016040519081016040528092919081815260200182805462000afb9062001238565b801562000b4c5780601f1062000b205761010080835404028352916020019162000b4c565b820191906000526020600020905b81548152906001019060200180831162000b2e57829003601f168201915b5050505050815250509050836001600160801b031642111562000bb25760405162461bcd60e51b815260206004820152601860248201527f626f6e642068617320616c7265616479206d61747572656400000000000000006044820152606401620002e0565b62000bc08533308662000dcc565b60006305f5e10082602001516a52b7d2dcc80cd2e400000062000be4919062001325565b62000bf0908662001348565b62000bfc919062001325565b60a08301516040516340c10f1960e01b8152336004820152602481018390529192506001600160a01b0316906340c10f1990604401600060405180830381600087803b15801562000c4c57600080fd5b505af115801562000c61573d6000803e3d6000fd5b50505050600081836040015162000c7991906200128b565b835190915081111562000cc75760405162461bcd60e51b81526020600482015260156024820152741b585e1a5b5d5b481919589d08195e18d959591959605a1b6044820152606401620002e0565b6001600160a01b0387811660008181526001602090815260408083206001600160801b038c168085529083529281902060020186905560a088015181518b8152928301879052909416939192917f6c2457580bd7954482ffb9ae7906de3108ec5cd89f00a52988491e66ea281a31910160405180910390a45095945050505050565b600060405163a9059cbb60e01b81526001600160a01b03841660048201528260248201526000806044836000895af191505062000d868162000e64565b62000dc65760405162461bcd60e51b815260206004820152600f60248201526e1514905394d1915497d19052531151608a1b6044820152606401620002e0565b50505050565b60006040516323b872dd60e01b81526001600160a01b03851660048201526001600160a01b038416602482015282604482015260008060648360008a5af191505062000e188162000e64565b62000e5d5760405162461bcd60e51b81526020600482015260146024820152731514905394d1915497d19493d357d1905253115160621b6044820152606401620002e0565b5050505050565b60003d8262000e7757806000803e806000fd5b806020811462000e9257801562000ea4576000925062000ea9565b816000803e6000511515925062000ea9565b600192505b5050919050565b611236806200136b83390190565b82805462000ecc9062001238565b90600052602060002090601f01602090048101928262000ef0576000855562000f3b565b82601f1062000f0b57805160ff191683800117855562000f3b565b8280016001018555821562000f3b579182015b8281111562000f3b57825182559160200191906001019062000f1e565b5062000f4992915062000f4d565b5090565b5b8082111562000f49576000815560010162000f4e565b80356001600160a01b0381168114620004d057600080fd5b80356001600160801b0381168114620004d057600080fd5b60008060006060848603121562000faa57600080fd5b62000fb58462000f64565b925062000fc56020850162000f7c565b9150604084013590509250925092565b60006020828403121562000fe857600080fd5b62000ff38262000f64565b9392505050565b634e487b7160e01b600052604160045260246000fd5b600082601f8301126200102257600080fd5b813567ffffffffffffffff8082111562001040576200104062000ffa565b604051601f8301601f19908116603f011681019082821181831017156200106b576200106b62000ffa565b816040528381528660208588010111156200108557600080fd5b836020870160208301376000602085830101528094505050505092915050565b600080600080600080600060e0888a031215620010c157600080fd5b620010cc8862000f64565b9650620010dc6020890162000f7c565b95506040880135945060608801359350608088013560ff811681146200110157600080fd5b925060a088013567ffffffffffffffff808211156200111f57600080fd5b6200112d8b838c0162001010565b935060c08a01359150808211156200114457600080fd5b50620011538a828b0162001010565b91505092959891949750929550565b600080604083850312156200117657600080fd5b620011818362000f64565b9150620011916020840162000f7c565b90509250929050565b6000815180845260005b81811015620011c257602081850181015186830182015201620011a4565b81811115620011d5576000602083870101525b50601f01601f19169290920160200192915050565b87815286602082015285604082015284606082015283608082015260018060a01b03831660a082015260e060c082015260006200122b60e08301846200119a565b9998505050505050505050565b600181811c908216806200124d57607f821691505b602082108114156200126f57634e487b7160e01b600052602260045260246000fd5b50919050565b634e487b7160e01b600052601160045260246000fd5b60008219821115620012a157620012a162001275565b500190565b60a081526000620012bb60a08301886200119a565b8281036020840152620012cf81886200119a565b60ff96909616604084015250506001600160801b039290921660608301526001600160a01b031660809091015292915050565b8281526040602082015260006200131d60408301846200119a565b949350505050565b6000826200134357634e487b7160e01b600052601260045260246000fd5b500490565b600081600019048311821515161562001365576200136562001275565b50029056fe6101006040523480156200001257600080fd5b5060405162001236380380620012368339810160408190526200003591620002fc565b84516200004a9060009060208801906200016c565b508351620000609060019060208701906200016c565b5060ff83166080526001600160801b03821660a052600280546001600160a01b0383166001600160a01b03199182161790915560038054909116331790554660c052620000ac620000bb565b60e05250620004949350505050565b60007f8b73c3c69bb8fe3d512ecc4cf759cc79239f7b179b0ffacaa9a75d522b39400f6000604051620000ef9190620003f0565b60408051918290038220828201825260018352603160f81b6020938401528151928301939093528101919091527fc89efdaa54c0f20c7adf612882df0950f5a951637e0307cdcb4c672f298b8bc660608201524660808201523060a082015260c00160405160208183030381529060405280519060200120905090565b8280546200017a90620003b3565b90600052602060002090601f0160209004810192826200019e5760008555620001e9565b82601f10620001b957805160ff1916838001178555620001e9565b82800160010185558215620001e9579182015b82811115620001e9578251825591602001919060010190620001cc565b50620001f7929150620001fb565b5090565b5b80821115620001f75760008155600101620001fc565b634e487b7160e01b600052604160045260246000fd5b600082601f8301126200023a57600080fd5b81516001600160401b038082111562000257576200025762000212565b604051601f8301601f19908116603f0116810190828211818310171562000282576200028262000212565b816040528381526020925086838588010111156200029f57600080fd5b600091505b83821015620002c35785820183015181830184015290820190620002a4565b83821115620002d55760008385830101525b9695505050505050565b80516001600160a01b0381168114620002f757600080fd5b919050565b600080600080600060a086880312156200031557600080fd5b85516001600160401b03808211156200032d57600080fd5b6200033b89838a0162000228565b965060208801519150808211156200035257600080fd5b50620003618882890162000228565b945050604086015160ff811681146200037957600080fd5b60608701519093506001600160801b03811681146200039757600080fd5b9150620003a760808701620002df565b90509295509295909350565b600181811c90821680620003c857607f821691505b60208210811415620003ea57634e487b7160e01b600052602260045260246000fd5b50919050565b600080835481600182811c9150808316806200040d57607f831692505b60208084108214156200042e57634e487b7160e01b86526022600452602486fd5b818015620004455760018114620004575762000486565b60ff1986168952848901965062000486565b60008a81526020902060005b868110156200047e5781548b82015290850190830162000463565b505084890196505b509498975050505050505050565b60805160a05160c05160e051610d68620004ce60003960006105500152600061051b01526000610178015260006101fa0152610d686000f3fe608060405234801561001057600080fd5b50600436106101165760003560e01c80636f307dc3116100a25780639dc29fac116100715780639dc29fac146102be578063a9059cbb146102d1578063d505accf146102e4578063dd62ed3e146102f7578063f851a4401461032257600080fd5b80636f307dc31461024b57806370a08231146102765780637ecebe001461029657806395d89b41146102b657600080fd5b806323b872dd116100e957806323b872dd146101bb57806330adf81f146101ce578063313ce567146101f55780633644e5151461022e57806340c10f191461023657600080fd5b806306fdde031461011b578063095ea7b31461013957806318160ddd1461015c578063204f83f914610173575b600080fd5b610123610335565b6040516101309190610a57565b60405180910390f35b61014c610147366004610ac8565b6103c3565b6040519015158152602001610130565b61016560045481565b604051908152602001610130565b61019a7f000000000000000000000000000000000000000000000000000000000000000081565b6040516fffffffffffffffffffffffffffffffff9091168152602001610130565b61014c6101c9366004610af2565b61042f565b6101657f6e71edae12b1b97f4d1f60370fef10105fa2faae0126114a169c64845d6126c981565b61021c7f000000000000000000000000000000000000000000000000000000000000000081565b60405160ff9091168152602001610130565b610165610517565b610249610244366004610ac8565b610572565b005b60025461025e906001600160a01b031681565b6040516001600160a01b039091168152602001610130565b610165610284366004610b2e565b60056020526000908152604090205481565b6101656102a4366004610b2e565b60076020526000908152604090205481565b610123610622565b6102496102cc366004610ac8565b61062f565b61014c6102df366004610ac8565b6106e2565b6102496102f2366004610b50565b610748565b610165610305366004610bc3565b600660209081526000928352604080842090915290825290205481565b60035461025e906001600160a01b031681565b6000805461034290610bf6565b80601f016020809104026020016040519081016040528092919081815260200182805461036e90610bf6565b80156103bb5780601f10610390576101008083540402835291602001916103bb565b820191906000526020600020905b81548152906001019060200180831161039e57829003601f168201915b505050505081565b3360008181526006602090815260408083206001600160a01b038716808552925280832085905551919290917f8c5be1e5ebec7d5bd14f71427d1e84f3dd0314c0f7b2291e5b200ac8c7c3b9259061041e9086815260200190565b60405180910390a350600192915050565b6001600160a01b038316600090815260066020908152604080832033845290915281205460001914610494576001600160a01b03841660009081526006602090815260408083203384529091528120805484929061048e908490610c47565b90915550505b6001600160a01b038416600090815260056020526040812080548492906104bc908490610c47565b90915550506001600160a01b0380841660008181526005602052604090819020805486019055519091861690600080516020610d13833981519152906105059086815260200190565b60405180910390a35060019392505050565b60007f0000000000000000000000000000000000000000000000000000000000000000461461054d576105486109a8565b905090565b507f000000000000000000000000000000000000000000000000000000000000000090565b6003546001600160a01b031633146105c85760405162461bcd60e51b815260206004820152601460248201527339b2b73232b91036bab9ba1031329030b236b4b760611b60448201526064015b60405180910390fd5b80600460008282546105da9190610c5e565b90915550506001600160a01b038216600081815260056020908152604080832080548601905551848152600080516020610d1383398151915291015b60405180910390a35050565b6001805461034290610bf6565b6003546001600160a01b031633146106805760405162461bcd60e51b815260206004820152601460248201527339b2b73232b91036bab9ba1031329030b236b4b760611b60448201526064016105bf565b6001600160a01b038216600090815260056020526040812080548392906106a8908490610c47565b90915550506004805482900390556040518181526000906001600160a01b03841690600080516020610d1383398151915290602001610616565b33600090815260056020526040812080548391908390610703908490610c47565b90915550506001600160a01b03831660008181526005602052604090819020805485019055513390600080516020610d138339815191529061041e9086815260200190565b428410156107985760405162461bcd60e51b815260206004820152601760248201527f5045524d49545f444541444c494e455f4558504952454400000000000000000060448201526064016105bf565b60006107a2610517565b6001600160a01b0389811660008181526007602090815260409182902080546001810190915582517f6e71edae12b1b97f4d1f60370fef10105fa2faae0126114a169c64845d6126c98184015280840194909452938c166060840152608083018b905260a083019390935260c08083018a90528151808403909101815260e08301909152805192019190912061190160f01b6101008301526101028201929092526101228101919091526101420160408051601f198184030181528282528051602091820120600080855291840180845281905260ff88169284019290925260608301869052608083018590529092509060019060a0016020604051602081039080840390855afa1580156108bb573d6000803e3d6000fd5b5050604051601f1901519150506001600160a01b038116158015906108f15750886001600160a01b0316816001600160a01b0316145b61093d5760405162461bcd60e51b815260206004820152601860248201527f494e56414c49445f5045524d49545f5349474e4154555245000000000000000060448201526064016105bf565b6001600160a01b0390811660009081526006602090815260408083208b8516808552908352928190208a905551898152919350918a16917f8c5be1e5ebec7d5bd14f71427d1e84f3dd0314c0f7b2291e5b200ac8c7c3b925910160405180910390a350505050505050565b60007f8b73c3c69bb8fe3d512ecc4cf759cc79239f7b179b0ffacaa9a75d522b39400f60006040516109da9190610c76565b60408051918290038220828201825260018352603160f81b6020938401528151928301939093528101919091527fc89efdaa54c0f20c7adf612882df0950f5a951637e0307cdcb4c672f298b8bc660608201524660808201523060a082015260c00160405160208183030381529060405280519060200120905090565b600060208083528351808285015260005b81811015610a8457858101830151858201604001528201610a68565b81811115610a96576000604083870101525b50601f01601f1916929092016040019392505050565b80356001600160a01b0381168114610ac357600080fd5b919050565b60008060408385031215610adb57600080fd5b610ae483610aac565b946020939093013593505050565b600080600060608486031215610b0757600080fd5b610b1084610aac565b9250610b1e60208501610aac565b9150604084013590509250925092565b600060208284031215610b4057600080fd5b610b4982610aac565b9392505050565b600080600080600080600060e0888a031215610b6b57600080fd5b610b7488610aac565b9650610b8260208901610aac565b95506040880135945060608801359350608088013560ff81168114610ba657600080fd5b9699959850939692959460a0840135945060c09093013592915050565b60008060408385031215610bd657600080fd5b610bdf83610aac565b9150610bed60208401610aac565b90509250929050565b600181811c90821680610c0a57607f821691505b60208210811415610c2b57634e487b7160e01b600052602260045260246000fd5b50919050565b634e487b7160e01b600052601160045260246000fd5b600082821015610c5957610c59610c31565b500390565b60008219821115610c7157610c71610c31565b500190565b600080835481600182811c915080831680610c9257607f831692505b6020808410821415610cb257634e487b7160e01b86526022600452602486fd5b818015610cc65760018114610cd757610d04565b60ff19861689528489019650610d04565b60008a81526020902060005b86811015610cfc5781548b820152908501908301610ce3565b505084890196505b50949897505050505050505056feddf252ad1be2c89b69c2b068fc378daa952ba7f163c4a11628f55a4df523b3efa264697066735822122001aa929ead9072c58f63a0be24a69c02123532cd9062de2b42ce81af133152e664736f6c634300080b0033a26469706673582212203503fad13e8de1bde9d15ff18cdbcac366a43542bffa4436109698904540596464736f6c634300080b0033",
    "sourcePath": "c:/Users/Julian/Documents/GitHub/bondable/bondable.sol",
    "compiler": {
        "name": "solc",
        "version": "0.8.11+commit.d7f03943"
    },
    "functionHashes": {
        "admin()": "f851a440",
        "createMarket(address,uint128,uint256,uint256,uint8,string,string)": "dcee8a6c",
        "markets(address,uint128)": "f11324d2",
        "mint(address,uint128,uint256)": "f6e384e4",
        "redeem(address,uint128,uint256)": "3c3d81eb",
        "repay(address,uint128,uint256)": "c264cfdc",
        "transferAdmin(address)": "75829def"
    },
    "gasEstimates": {
        "creation": {
            "codeDepositCost": "1937200",
            "executionCost": "26283",
            "totalCost": "1963483"
        },
        "external": {
            "admin()": "2403",
            "createMarket(address,uint128,uint256,uint256,uint8,string,string)": "infinite",
            "markets(address,uint128)": "infinite",
            "mint(address,uint128,uint256)": "infinite",
            "redeem(address,uint128,uint256)": "infinite",
            "repay(address,uint128,uint256)": "infinite",
            "transferAdmin(address)": "infinite"
        }
    }
}