{
    "contractName": "Bondable",
    "abi": [
        {
            "inputs": [],
            "stateMutability": "nonpayable",
            "type": "constructor"
        },
        {
            "anonymous": false,
            "inputs": [
                {
                    "indexed": true,
                    "internalType": "address",
                    "name": "underlying",
                    "type": "address"
                },
                {
                    "indexed": true,
                    "internalType": "uint256",
                    "name": "maturity",
                    "type": "uint256"
                },
                {
                    "indexed": true,
                    "internalType": "address",
                    "name": "bond",
                    "type": "address"
                },
                {
                    "indexed": false,
                    "internalType": "uint256",
                    "name": "amount",
                    "type": "uint256"
                },
                {
                    "indexed": false,
                    "internalType": "uint256",
                    "name": "mintedDebt",
                    "type": "uint256"
                }
            ],
            "name": "bondMinted",
            "type": "event"
        },
        {
            "anonymous": false,
            "inputs": [
                {
                    "indexed": true,
                    "internalType": "address",
                    "name": "underlying",
                    "type": "address"
                },
                {
                    "indexed": true,
                    "internalType": "uint256",
                    "name": "maturity",
                    "type": "uint256"
                },
                {
                    "indexed": true,
                    "internalType": "address",
                    "name": "bond",
                    "type": "address"
                },
                {
                    "indexed": false,
                    "internalType": "uint256",
                    "name": "amount",
                    "type": "uint256"
                },
                {
                    "indexed": false,
                    "internalType": "uint256",
                    "name": "redeemedDebt",
                    "type": "uint256"
                }
            ],
            "name": "bondRedeemed",
            "type": "event"
        },
        {
            "anonymous": false,
            "inputs": [
                {
                    "indexed": true,
                    "internalType": "address",
                    "name": "underlying",
                    "type": "address"
                },
                {
                    "indexed": true,
                    "internalType": "uint256",
                    "name": "maturity",
                    "type": "uint256"
                },
                {
                    "indexed": true,
                    "internalType": "address",
                    "name": "bond",
                    "type": "address"
                },
                {
                    "indexed": false,
                    "internalType": "uint256",
                    "name": "amount",
                    "type": "uint256"
                },
                {
                    "indexed": false,
                    "internalType": "uint256",
                    "name": "repaidDebt",
                    "type": "uint256"
                }
            ],
            "name": "bondRepaid",
            "type": "event"
        },
        {
            "anonymous": false,
            "inputs": [
                {
                    "indexed": true,
                    "internalType": "address",
                    "name": "underlying",
                    "type": "address"
                },
                {
                    "indexed": true,
                    "internalType": "uint256",
                    "name": "maturity",
                    "type": "uint256"
                },
                {
                    "indexed": true,
                    "internalType": "address",
                    "name": "bond",
                    "type": "address"
                },
                {
                    "indexed": false,
                    "internalType": "uint256",
                    "name": "maximumDebt",
                    "type": "uint256"
                },
                {
                    "indexed": false,
                    "internalType": "string",
                    "name": "name",
                    "type": "string"
                }
            ],
            "name": "marketCreated",
            "type": "event"
        },
        {
            "inputs": [],
            "name": "admin",
            "outputs": [
                {
                    "internalType": "address",
                    "name": "",
                    "type": "address"
                }
            ],
            "stateMutability": "view",
            "type": "function"
        },
        {
            "inputs": [
                {
                    "internalType": "address",
                    "name": "underlying",
                    "type": "address"
                },
                {
                    "internalType": "uint256",
                    "name": "maturity",
                    "type": "uint256"
                },
                {
                    "internalType": "uint256",
                    "name": "maximumDebt",
                    "type": "uint256"
                },
                {
                    "internalType": "uint256",
                    "name": "price",
                    "type": "uint256"
                },
                {
                    "internalType": "uint8",
                    "name": "decimals",
                    "type": "uint8"
                },
                {
                    "internalType": "string",
                    "name": "name",
                    "type": "string"
                },
                {
                    "internalType": "string",
                    "name": "symbol",
                    "type": "string"
                }
            ],
            "name": "createMarket",
            "outputs": [
                {
                    "internalType": "address",
                    "name": "",
                    "type": "address"
                }
            ],
            "stateMutability": "nonpayable",
            "type": "function"
        },
        {
            "inputs": [
                {
                    "internalType": "address",
                    "name": "",
                    "type": "address"
                },
                {
                    "internalType": "uint256",
                    "name": "",
                    "type": "uint256"
                }
            ],
            "name": "markets",
            "outputs": [
                {
                    "internalType": "uint256",
                    "name": "maximumDebt",
                    "type": "uint256"
                },
                {
                    "internalType": "uint256",
                    "name": "price",
                    "type": "uint256"
                },
                {
                    "internalType": "uint256",
                    "name": "mintedDebt",
                    "type": "uint256"
                },
                {
                    "internalType": "uint256",
                    "name": "repaidDebt",
                    "type": "uint256"
                },
                {
                    "internalType": "uint256",
                    "name": "redeemedDebt",
                    "type": "uint256"
                },
                {
                    "internalType": "address",
                    "name": "bond",
                    "type": "address"
                },
                {
                    "internalType": "string",
                    "name": "name",
                    "type": "string"
                }
            ],
            "stateMutability": "view",
            "type": "function"
        },
        {
            "inputs": [
                {
                    "internalType": "address",
                    "name": "underlying",
                    "type": "address"
                },
                {
                    "internalType": "uint256",
                    "name": "maturity",
                    "type": "uint256"
                },
                {
                    "internalType": "uint256",
                    "name": "amount",
                    "type": "uint256"
                }
            ],
            "name": "mint",
            "outputs": [
                {
                    "internalType": "uint256",
                    "name": "",
                    "type": "uint256"
                }
            ],
            "stateMutability": "nonpayable",
            "type": "function"
        },
        {
            "inputs": [
                {
                    "internalType": "address",
                    "name": "underlying",
                    "type": "address"
                },
                {
                    "internalType": "uint256",
                    "name": "maturity",
                    "type": "uint256"
                },
                {
                    "internalType": "uint256",
                    "name": "amount",
                    "type": "uint256"
                }
            ],
            "name": "redeem",
            "outputs": [
                {
                    "internalType": "uint256",
                    "name": "",
                    "type": "uint256"
                }
            ],
            "stateMutability": "nonpayable",
            "type": "function"
        },
        {
            "inputs": [
                {
                    "internalType": "address",
                    "name": "underlying",
                    "type": "address"
                },
                {
                    "internalType": "uint256",
                    "name": "maturity",
                    "type": "uint256"
                },
                {
                    "internalType": "uint256",
                    "name": "amount",
                    "type": "uint256"
                }
            ],
            "name": "repay",
            "outputs": [
                {
                    "internalType": "uint256",
                    "name": "",
                    "type": "uint256"
                }
            ],
            "stateMutability": "nonpayable",
            "type": "function"
        },
        {
            "inputs": [
                {
                    "internalType": "address",
                    "name": "newAdmin",
                    "type": "address"
                }
            ],
            "name": "transferAdmin",
            "outputs": [
                {
                    "internalType": "address",
                    "name": "",
                    "type": "address"
                }
            ],
            "stateMutability": "nonpayable",
            "type": "function"
        }
    ],
    "bytecode": "608060405234801561001057600080fd5b50600080546001600160a01b031916331790556124d5806100326000396000f3fe60806040523480156200001157600080fd5b5060043610620000875760003560e01c806339c872d8116200006257806339c872d814620000f957806375829def14620001295780638cd2e0c71462000140578063f851a440146200015757600080fd5b8063156e29f6146200008c57806317b3bba714620000b65780632b83cccd14620000e2575b600080fd5b620000a36200009d36600462000f08565b6200016b565b6040519081526020015b60405180910390f35b620000cd620000c736600462000f3e565b62000456565b604051620000ad979695949392919062000fbb565b620000a3620000f336600462000f08565b62000538565b620001106200010a366004620010b4565b62000808565b6040516001600160a01b039091168152602001620000ad565b620001106200013a36600462001168565b62000a5e565b620000a36200015136600462000f08565b62000ad7565b60005462000110906001600160a01b031681565b6001600160a01b0380841660009081526001602081815260408084208785528252808420815160e0810183528154815293810154928401929092526002820154908301526003810154606083015260048101546080830152600581015490931660a082015260068301805492938493909160c0840191620001ec906200118d565b80601f01602080910402602001604051908101604052809291908181526020018280546200021a906200118d565b80156200026b5780601f106200023f576101008083540402835291602001916200026b565b820191906000526020600020905b8154815290600101906020018083116200024d57829003601f168201915b505050505081525050905083421115620002cc5760405162461bcd60e51b815260206004820152601860248201527f626f6e642068617320616c7265616479206d617475726564000000000000000060448201526064015b60405180910390fd5b620002da8533308662000cd5565b60006305f5e10082602001516a52b7d2dcc80cd2e4000000620002fe9190620011e0565b6200030a908662001203565b620003169190620011e0565b60a08301516040516340c10f1960e01b8152336004820152602481018390529192506001600160a01b0316906340c10f1990604401600060405180830381600087803b1580156200036657600080fd5b505af11580156200037b573d6000803e3d6000fd5b50505050600081836040015162000393919062001225565b8351909150811115620003e15760405162461bcd60e51b81526020600482015260156024820152741b585e1a5b5d5b481919589d08195e18d959591959605a1b6044820152606401620002c3565b6001600160a01b0387811660008181526001602090815260408083208b845282529182902060020185905560a087015182518a815291820186905282519416938a93927f6c2457580bd7954482ffb9ae7906de3108ec5cd89f00a52988491e66ea281a31928290030190a45095945050505050565b60016020818152600093845260408085209091529183529120805491810154600282015460038301546004840154600585015460068601805495969495939492936001600160a01b039092169291620004af906200118d565b80601f0160208091040260200160405190810160405280929190818152602001828054620004dd906200118d565b80156200052e5780601f1062000502576101008083540402835291602001916200052e565b820191906000526020600020905b8154815290600101906020018083116200051057829003601f168201915b5050505050905087565b6001600160a01b0380841660009081526001602081815260408084208785528252808420815160e0810183528154815293810154928401929092526002820154908301526003810154606083015260048101546080830152600581015490931660a082015260068301805492938493909160c0840191620005b9906200118d565b80601f0160208091040260200160405190810160405280929190818152602001828054620005e7906200118d565b8015620006385780601f106200060c5761010080835404028352916020019162000638565b820191906000526020600020905b8154815290600101906020018083116200061a57829003601f168201915b505050505081525050905083421015620006a05760405162461bcd60e51b815260206004820152602260248201527f626f6e64206d6174757269747920686173206e6f74206265656e207265616368604482015261195960f21b6064820152608401620002c3565b6000838260800151620006b4919062001225565b905081606001518111156200071b5760405162461bcd60e51b815260206004820152602660248201527f746f74616c206d61726b657420636c61696d20657863656564732064656274206044820152651c995c185a5960d21b6064820152608401620002c3565b60a0820151604051632770a7eb60e21b8152336004820152602481018690526001600160a01b0390911690639dc29fac90604401600060405180830381600087803b1580156200076a57600080fd5b505af11580156200077f573d6000803e3d6000fd5b505050506200079086338662000d6d565b6001600160a01b0386811660008181526001602090815260408083208a845282529182902060040185905560a08601518251898152918201869052909316928892917f7a82f4d5637b0e35afe176d99e7a3ca77e99fb361ceeaf12c4e2b2e739132bc991015b60405180910390a45091949350505050565b600080546001600160a01b031633146200085c5760405162461bcd60e51b815260206004820152601460248201527339b2b73232b91036bab9ba1031329030b236b4b760611b6044820152606401620002c3565b6001600160a01b03881660009081526001602090815260408083208a845290915290205415620008c75760405162461bcd60e51b81526020600482015260156024820152744d61726b657420616c72656164792065786973747360581b6044820152606401620002c3565b60008383868a8c604051620008dc9062000e3c565b620008ec95949392919062001240565b604051809103906000f08015801562000909573d6000803e3d6000fd5b5090506040518060e00160405280888152602001878152602001600081526020016000815260200160008152602001826001600160a01b0316815260200185815250600160008b6001600160a01b03166001600160a01b0316815260200190815260200160002060008a8152602001908152602001600020600082015181600001556020820151816001015560408201518160020155606082015181600301556080820151816004015560a08201518160050160006101000a8154816001600160a01b0302191690836001600160a01b0316021790555060c0820151816006019080519060200190620009fe92919062000e4a565b50905050806001600160a01b0316888a6001600160a01b03167f6ce035b0ee3b8e05e21551d8a5224ec59d6687f731561f788ea4d3ce97ca38748a8860405162000a4a92919062001293565b60405180910390a498975050505050505050565b600080546001600160a01b0316331462000ab25760405162461bcd60e51b815260206004820152601460248201527339b2b73232b91036bab9ba1031329030b236b4b760611b6044820152606401620002c3565b50600080546001600160a01b0319166001600160a01b0383169081179091555b919050565b6001600160a01b0380841660009081526001602081815260408084208785528252808420815160e0810183528154815293810154928401929092526002820154908301526003810154606083015260048101546080830152600581015490931660a082015260068301805492938493909160c084019162000b58906200118d565b80601f016020809104026020016040519081016040528092919081815260200182805462000b86906200118d565b801562000bd75780601f1062000bab5761010080835404028352916020019162000bd7565b820191906000526020600020905b81548152906001019060200180831162000bb957829003601f168201915b5050505050815250509050600083826060015162000bf6919062001225565b9050816040015181111562000c5d5760405162461bcd60e51b815260206004820152602660248201527f63616e206e6f74207265706179206d6f72652064656274207468616e206973206044820152651b5a5b9d195960d21b6064820152608401620002c3565b62000c6a86338662000d6d565b6001600160a01b0386811660008181526001602090815260408083208a845282529182902060030185905560a08601518251898152918201869052909316928892917fca2af4f221fc78b7654a41e56bdc0c6856f9e16e4937ac1a9d7b68fafde209e09101620007f6565b60006040516323b872dd60e01b81526001600160a01b03851660048201526001600160a01b038416602482015282604482015260008060648360008a5af191505062000d218162000df0565b62000d665760405162461bcd60e51b81526020600482015260146024820152731514905394d1915497d19493d357d1905253115160621b6044820152606401620002c3565b5050505050565b600060405163a9059cbb60e01b81526001600160a01b03841660048201528260248201526000806044836000895af191505062000daa8162000df0565b62000dea5760405162461bcd60e51b815260206004820152600f60248201526e1514905394d1915497d19052531151608a1b6044820152606401620002c3565b50505050565b60003d8262000e0357806000803e806000fd5b806020811462000e1e57801562000e30576000925062000e35565b816000803e6000511515925062000e35565b600192505b5050919050565b6111e980620012b783390190565b82805462000e58906200118d565b90600052602060002090601f01602090048101928262000e7c576000855562000ec7565b82601f1062000e9757805160ff191683800117855562000ec7565b8280016001018555821562000ec7579182015b8281111562000ec757825182559160200191906001019062000eaa565b5062000ed592915062000ed9565b5090565b5b8082111562000ed5576000815560010162000eda565b80356001600160a01b038116811462000ad257600080fd5b60008060006060848603121562000f1e57600080fd5b62000f298462000ef0565b95602085013595506040909401359392505050565b6000806040838503121562000f5257600080fd5b62000f5d8362000ef0565b946020939093013593505050565b6000815180845260005b8181101562000f935760208185018101518683018201520162000f75565b8181111562000fa6576000602083870101525b50601f01601f19169290920160200192915050565b87815286602082015285604082015284606082015283608082015260018060a01b03831660a082015260e060c0820152600062000ffc60e083018462000f6b565b9998505050505050505050565b634e487b7160e01b600052604160045260246000fd5b600082601f8301126200103157600080fd5b813567ffffffffffffffff808211156200104f576200104f62001009565b604051601f8301601f19908116603f011681019082821181831017156200107a576200107a62001009565b816040528381528660208588010111156200109457600080fd5b836020870160208301376000602085830101528094505050505092915050565b600080600080600080600060e0888a031215620010d057600080fd5b620010db8862000ef0565b9650602088013595506040880135945060608801359350608088013560ff811681146200110757600080fd5b925060a088013567ffffffffffffffff808211156200112557600080fd5b620011338b838c016200101f565b935060c08a01359150808211156200114a57600080fd5b50620011598a828b016200101f565b91505092959891949750929550565b6000602082840312156200117b57600080fd5b620011868262000ef0565b9392505050565b600181811c90821680620011a257607f821691505b60208210811415620011c457634e487b7160e01b600052602260045260246000fd5b50919050565b634e487b7160e01b600052601160045260246000fd5b600082620011fe57634e487b7160e01b600052601260045260246000fd5b500490565b6000816000190483118215151615620012205762001220620011ca565b500290565b600082198211156200123b576200123b620011ca565b500190565b60a0815260006200125560a083018862000f6b565b828103602084015262001269818862000f6b565b60ff969096166040840152505060608101929092526001600160a01b031660809091015292915050565b828152604060208201526000620012ae604083018462000f6b565b94935050505056fe6101006040523480156200001257600080fd5b50604051620011e9380380620011e98339810160408190526200003591620002d7565b84516200004a90600090602088019062000164565b5083516200006090600190602087019062000164565b5060ff831660805260a0829052600280546001600160a01b0383166001600160a01b03199182161790915560038054909116331790554660c052620000a4620000b3565b60e05250620004689350505050565b60007f8b73c3c69bb8fe3d512ecc4cf759cc79239f7b179b0ffacaa9a75d522b39400f6000604051620000e79190620003c4565b60408051918290038220828201825260018352603160f81b6020938401528151928301939093528101919091527fc89efdaa54c0f20c7adf612882df0950f5a951637e0307cdcb4c672f298b8bc660608201524660808201523060a082015260c00160405160208183030381529060405280519060200120905090565b828054620001729062000387565b90600052602060002090601f016020900481019282620001965760008555620001e1565b82601f10620001b157805160ff1916838001178555620001e1565b82800160010185558215620001e1579182015b82811115620001e1578251825591602001919060010190620001c4565b50620001ef929150620001f3565b5090565b5b80821115620001ef5760008155600101620001f4565b634e487b7160e01b600052604160045260246000fd5b600082601f8301126200023257600080fd5b81516001600160401b03808211156200024f576200024f6200020a565b604051601f8301601f19908116603f011681019082821181831017156200027a576200027a6200020a565b816040528381526020925086838588010111156200029757600080fd5b600091505b83821015620002bb57858201830151818301840152908201906200029c565b83821115620002cd5760008385830101525b9695505050505050565b600080600080600060a08688031215620002f057600080fd5b85516001600160401b03808211156200030857600080fd5b6200031689838a0162000220565b965060208801519150808211156200032d57600080fd5b506200033c8882890162000220565b945050604086015160ff811681146200035457600080fd5b6060870151608088015191945092506001600160a01b03811681146200037957600080fd5b809150509295509295909350565b600181811c908216806200039c57607f821691505b60208210811415620003be57634e487b7160e01b600052602260045260246000fd5b50919050565b600080835481600182811c915080831680620003e157607f831692505b60208084108214156200040257634e487b7160e01b86526022600452602486fd5b8180156200041957600181146200042b576200045a565b60ff198616895284890196506200045a565b60008a81526020902060005b86811015620004525781548b82015290850190830162000437565b505084890196505b509498975050505050505050565b60805160a05160c05160e051610d47620004a2600039600061052f015260006104fa01526000610178015260006101d90152610d476000f3fe608060405234801561001057600080fd5b50600436106101165760003560e01c80636f307dc3116100a25780639dc29fac116100715780639dc29fac1461029d578063a9059cbb146102b0578063d505accf146102c3578063dd62ed3e146102d6578063f851a4401461030157600080fd5b80636f307dc31461022a57806370a08231146102555780637ecebe001461027557806395d89b411461029557600080fd5b806323b872dd116100e957806323b872dd1461019a57806330adf81f146101ad578063313ce567146101d45780633644e5151461020d57806340c10f191461021557600080fd5b806306fdde031461011b578063095ea7b31461013957806318160ddd1461015c578063204f83f914610173575b600080fd5b610123610314565b6040516101309190610a36565b60405180910390f35b61014c610147366004610aa7565b6103a2565b6040519015158152602001610130565b61016560045481565b604051908152602001610130565b6101657f000000000000000000000000000000000000000000000000000000000000000081565b61014c6101a8366004610ad1565b61040e565b6101657f6e71edae12b1b97f4d1f60370fef10105fa2faae0126114a169c64845d6126c981565b6101fb7f000000000000000000000000000000000000000000000000000000000000000081565b60405160ff9091168152602001610130565b6101656104f6565b610228610223366004610aa7565b610551565b005b60025461023d906001600160a01b031681565b6040516001600160a01b039091168152602001610130565b610165610263366004610b0d565b60056020526000908152604090205481565b610165610283366004610b0d565b60076020526000908152604090205481565b610123610601565b6102286102ab366004610aa7565b61060e565b61014c6102be366004610aa7565b6106c1565b6102286102d1366004610b2f565b610727565b6101656102e4366004610ba2565b600660209081526000928352604080842090915290825290205481565b60035461023d906001600160a01b031681565b6000805461032190610bd5565b80601f016020809104026020016040519081016040528092919081815260200182805461034d90610bd5565b801561039a5780601f1061036f5761010080835404028352916020019161039a565b820191906000526020600020905b81548152906001019060200180831161037d57829003601f168201915b505050505081565b3360008181526006602090815260408083206001600160a01b038716808552925280832085905551919290917f8c5be1e5ebec7d5bd14f71427d1e84f3dd0314c0f7b2291e5b200ac8c7c3b925906103fd9086815260200190565b60405180910390a350600192915050565b6001600160a01b038316600090815260066020908152604080832033845290915281205460001914610473576001600160a01b03841660009081526006602090815260408083203384529091528120805484929061046d908490610c26565b90915550505b6001600160a01b0384166000908152600560205260408120805484929061049b908490610c26565b90915550506001600160a01b0380841660008181526005602052604090819020805486019055519091861690600080516020610cf2833981519152906104e49086815260200190565b60405180910390a35060019392505050565b60007f0000000000000000000000000000000000000000000000000000000000000000461461052c57610527610987565b905090565b507f000000000000000000000000000000000000000000000000000000000000000090565b6003546001600160a01b031633146105a75760405162461bcd60e51b815260206004820152601460248201527339b2b73232b91036bab9ba1031329030b236b4b760611b60448201526064015b60405180910390fd5b80600460008282546105b99190610c3d565b90915550506001600160a01b038216600081815260056020908152604080832080548601905551848152600080516020610cf283398151915291015b60405180910390a35050565b6001805461032190610bd5565b6003546001600160a01b0316331461065f5760405162461bcd60e51b815260206004820152601460248201527339b2b73232b91036bab9ba1031329030b236b4b760611b604482015260640161059e565b6001600160a01b03821660009081526005602052604081208054839290610687908490610c26565b90915550506004805482900390556040518181526000906001600160a01b03841690600080516020610cf2833981519152906020016105f5565b336000908152600560205260408120805483919083906106e2908490610c26565b90915550506001600160a01b03831660008181526005602052604090819020805485019055513390600080516020610cf2833981519152906103fd9086815260200190565b428410156107775760405162461bcd60e51b815260206004820152601760248201527f5045524d49545f444541444c494e455f45585049524544000000000000000000604482015260640161059e565b60006107816104f6565b6001600160a01b0389811660008181526007602090815260409182902080546001810190915582517f6e71edae12b1b97f4d1f60370fef10105fa2faae0126114a169c64845d6126c98184015280840194909452938c166060840152608083018b905260a083019390935260c08083018a90528151808403909101815260e08301909152805192019190912061190160f01b6101008301526101028201929092526101228101919091526101420160408051601f198184030181528282528051602091820120600080855291840180845281905260ff88169284019290925260608301869052608083018590529092509060019060a0016020604051602081039080840390855afa15801561089a573d6000803e3d6000fd5b5050604051601f1901519150506001600160a01b038116158015906108d05750886001600160a01b0316816001600160a01b0316145b61091c5760405162461bcd60e51b815260206004820152601860248201527f494e56414c49445f5045524d49545f5349474e41545552450000000000000000604482015260640161059e565b6001600160a01b0390811660009081526006602090815260408083208b8516808552908352928190208a905551898152919350918a16917f8c5be1e5ebec7d5bd14f71427d1e84f3dd0314c0f7b2291e5b200ac8c7c3b925910160405180910390a350505050505050565b60007f8b73c3c69bb8fe3d512ecc4cf759cc79239f7b179b0ffacaa9a75d522b39400f60006040516109b99190610c55565b60408051918290038220828201825260018352603160f81b6020938401528151928301939093528101919091527fc89efdaa54c0f20c7adf612882df0950f5a951637e0307cdcb4c672f298b8bc660608201524660808201523060a082015260c00160405160208183030381529060405280519060200120905090565b600060208083528351808285015260005b81811015610a6357858101830151858201604001528201610a47565b81811115610a75576000604083870101525b50601f01601f1916929092016040019392505050565b80356001600160a01b0381168114610aa257600080fd5b919050565b60008060408385031215610aba57600080fd5b610ac383610a8b565b946020939093013593505050565b600080600060608486031215610ae657600080fd5b610aef84610a8b565b9250610afd60208501610a8b565b9150604084013590509250925092565b600060208284031215610b1f57600080fd5b610b2882610a8b565b9392505050565b600080600080600080600060e0888a031215610b4a57600080fd5b610b5388610a8b565b9650610b6160208901610a8b565b95506040880135945060608801359350608088013560ff81168114610b8557600080fd5b9699959850939692959460a0840135945060c09093013592915050565b60008060408385031215610bb557600080fd5b610bbe83610a8b565b9150610bcc60208401610a8b565b90509250929050565b600181811c90821680610be957607f821691505b60208210811415610c0a57634e487b7160e01b600052602260045260246000fd5b50919050565b634e487b7160e01b600052601160045260246000fd5b600082821015610c3857610c38610c10565b500390565b60008219821115610c5057610c50610c10565b500190565b600080835481600182811c915080831680610c7157607f831692505b6020808410821415610c9157634e487b7160e01b86526022600452602486fd5b818015610ca55760018114610cb657610ce3565b60ff19861689528489019650610ce3565b60008a81526020902060005b86811015610cdb5781548b820152908501908301610cc2565b505084890196505b50949897505050505050505056feddf252ad1be2c89b69c2b068fc378daa952ba7f163c4a11628f55a4df523b3efa264697066735822122057b42dc146d9098d7394dfbff08a92e7f5c165cc017d9d219d236f266d03137064736f6c634300080b0033a26469706673582212202731a07fe4a996beaa78b62a63df285a0cf950824eab868412f209a7cd429ae264736f6c634300080b0033",
    "sourcePath": "c:/Users/Julian/Documents/GitHub/bondable/bondable.sol",
    "compiler": {
        "name": "solc",
        "version": "0.8.11+commit.d7f03943"
    },
    "functionHashes": {
        "admin()": "f851a440",
        "createMarket(address,uint256,uint256,uint256,uint8,string,string)": "39c872d8",
        "markets(address,uint256)": "17b3bba7",
        "mint(address,uint256,uint256)": "156e29f6",
        "redeem(address,uint256,uint256)": "2b83cccd",
        "repay(address,uint256,uint256)": "8cd2e0c7",
        "transferAdmin(address)": "75829def"
    },
    "gasEstimates": {
        "creation": {
            "codeDepositCost": "1885800",
            "executionCost": "26225",
            "totalCost": "1912025"
        },
        "external": {
            "admin()": "2403",
            "createMarket(address,uint256,uint256,uint256,uint8,string,string)": "infinite",
            "markets(address,uint256)": "infinite",
            "mint(address,uint256,uint256)": "infinite",
            "redeem(address,uint256,uint256)": "infinite",
            "repay(address,uint256,uint256)": "infinite",
            "transferAdmin(address)": "infinite"
        }
    }
}