{
    "contractName": "zcToken",
    "abi": [
        {
            "inputs": [
                {
                    "internalType": "string",
                    "name": "_name",
                    "type": "string"
                },
                {
                    "internalType": "string",
                    "name": "_symbol",
                    "type": "string"
                },
                {
                    "internalType": "uint8",
                    "name": "_decimals",
                    "type": "uint8"
                },
                {
                    "internalType": "uint256",
                    "name": "_maturity",
                    "type": "uint256"
                },
                {
                    "internalType": "address",
                    "name": "_underlying",
                    "type": "address"
                }
            ],
            "stateMutability": "nonpayable",
            "type": "constructor"
        },
        {
            "anonymous": false,
            "inputs": [
                {
                    "indexed": true,
                    "internalType": "address",
                    "name": "owner",
                    "type": "address"
                },
                {
                    "indexed": true,
                    "internalType": "address",
                    "name": "spender",
                    "type": "address"
                },
                {
                    "indexed": false,
                    "internalType": "uint256",
                    "name": "amount",
                    "type": "uint256"
                }
            ],
            "name": "Approval",
            "type": "event"
        },
        {
            "anonymous": false,
            "inputs": [
                {
                    "indexed": true,
                    "internalType": "address",
                    "name": "from",
                    "type": "address"
                },
                {
                    "indexed": true,
                    "internalType": "address",
                    "name": "to",
                    "type": "address"
                },
                {
                    "indexed": false,
                    "internalType": "uint256",
                    "name": "amount",
                    "type": "uint256"
                }
            ],
            "name": "Transfer",
            "type": "event"
        },
        {
            "inputs": [],
            "name": "DOMAIN_SEPARATOR",
            "outputs": [
                {
                    "internalType": "bytes32",
                    "name": "",
                    "type": "bytes32"
                }
            ],
            "stateMutability": "view",
            "type": "function"
        },
        {
            "inputs": [],
            "name": "PERMIT_TYPEHASH",
            "outputs": [
                {
                    "internalType": "bytes32",
                    "name": "",
                    "type": "bytes32"
                }
            ],
            "stateMutability": "view",
            "type": "function"
        },
        {
            "inputs": [],
            "name": "admin",
            "outputs": [
                {
                    "internalType": "address",
                    "name": "",
                    "type": "address"
                }
            ],
            "stateMutability": "view",
            "type": "function"
        },
        {
            "inputs": [
                {
                    "internalType": "address",
                    "name": "",
                    "type": "address"
                },
                {
                    "internalType": "address",
                    "name": "",
                    "type": "address"
                }
            ],
            "name": "allowance",
            "outputs": [
                {
                    "internalType": "uint256",
                    "name": "",
                    "type": "uint256"
                }
            ],
            "stateMutability": "view",
            "type": "function"
        },
        {
            "inputs": [
                {
                    "internalType": "address",
                    "name": "spender",
                    "type": "address"
                },
                {
                    "internalType": "uint256",
                    "name": "amount",
                    "type": "uint256"
                }
            ],
            "name": "approve",
            "outputs": [
                {
                    "internalType": "bool",
                    "name": "",
                    "type": "bool"
                }
            ],
            "stateMutability": "nonpayable",
            "type": "function"
        },
        {
            "inputs": [
                {
                    "internalType": "address",
                    "name": "",
                    "type": "address"
                }
            ],
            "name": "balanceOf",
            "outputs": [
                {
                    "internalType": "uint256",
                    "name": "",
                    "type": "uint256"
                }
            ],
            "stateMutability": "view",
            "type": "function"
        },
        {
            "inputs": [
                {
                    "internalType": "address",
                    "name": "from",
                    "type": "address"
                },
                {
                    "internalType": "uint256",
                    "name": "amount",
                    "type": "uint256"
                }
            ],
            "name": "burn",
            "outputs": [],
            "stateMutability": "nonpayable",
            "type": "function"
        },
        {
            "inputs": [],
            "name": "decimals",
            "outputs": [
                {
                    "internalType": "uint8",
                    "name": "",
                    "type": "uint8"
                }
            ],
            "stateMutability": "view",
            "type": "function"
        },
        {
            "inputs": [],
            "name": "maturity",
            "outputs": [
                {
                    "internalType": "uint256",
                    "name": "",
                    "type": "uint256"
                }
            ],
            "stateMutability": "view",
            "type": "function"
        },
        {
            "inputs": [
                {
                    "internalType": "address",
                    "name": "to",
                    "type": "address"
                },
                {
                    "internalType": "uint256",
                    "name": "amount",
                    "type": "uint256"
                }
            ],
            "name": "mint",
            "outputs": [],
            "stateMutability": "nonpayable",
            "type": "function"
        },
        {
            "inputs": [],
            "name": "name",
            "outputs": [
                {
                    "internalType": "string",
                    "name": "",
                    "type": "string"
                }
            ],
            "stateMutability": "view",
            "type": "function"
        },
        {
            "inputs": [
                {
                    "internalType": "address",
                    "name": "",
                    "type": "address"
                }
            ],
            "name": "nonces",
            "outputs": [
                {
                    "internalType": "uint256",
                    "name": "",
                    "type": "uint256"
                }
            ],
            "stateMutability": "view",
            "type": "function"
        },
        {
            "inputs": [
                {
                    "internalType": "address",
                    "name": "owner",
                    "type": "address"
                },
                {
                    "internalType": "address",
                    "name": "spender",
                    "type": "address"
                },
                {
                    "internalType": "uint256",
                    "name": "value",
                    "type": "uint256"
                },
                {
                    "internalType": "uint256",
                    "name": "deadline",
                    "type": "uint256"
                },
                {
                    "internalType": "uint8",
                    "name": "v",
                    "type": "uint8"
                },
                {
                    "internalType": "bytes32",
                    "name": "r",
                    "type": "bytes32"
                },
                {
                    "internalType": "bytes32",
                    "name": "s",
                    "type": "bytes32"
                }
            ],
            "name": "permit",
            "outputs": [],
            "stateMutability": "nonpayable",
            "type": "function"
        },
        {
            "inputs": [],
            "name": "symbol",
            "outputs": [
                {
                    "internalType": "string",
                    "name": "",
                    "type": "string"
                }
            ],
            "stateMutability": "view",
            "type": "function"
        },
        {
            "inputs": [],
            "name": "totalSupply",
            "outputs": [
                {
                    "internalType": "uint256",
                    "name": "",
                    "type": "uint256"
                }
            ],
            "stateMutability": "view",
            "type": "function"
        },
        {
            "inputs": [
                {
                    "internalType": "address",
                    "name": "to",
                    "type": "address"
                },
                {
                    "internalType": "uint256",
                    "name": "amount",
                    "type": "uint256"
                }
            ],
            "name": "transfer",
            "outputs": [
                {
                    "internalType": "bool",
                    "name": "",
                    "type": "bool"
                }
            ],
            "stateMutability": "nonpayable",
            "type": "function"
        },
        {
            "inputs": [
                {
                    "internalType": "address",
                    "name": "from",
                    "type": "address"
                },
                {
                    "internalType": "address",
                    "name": "to",
                    "type": "address"
                },
                {
                    "internalType": "uint256",
                    "name": "amount",
                    "type": "uint256"
                }
            ],
            "name": "transferFrom",
            "outputs": [
                {
                    "internalType": "bool",
                    "name": "",
                    "type": "bool"
                }
            ],
            "stateMutability": "nonpayable",
            "type": "function"
        },
        {
            "inputs": [],
            "name": "underlying",
            "outputs": [
                {
                    "internalType": "address",
                    "name": "",
                    "type": "address"
                }
            ],
            "stateMutability": "view",
            "type": "function"
        }
    ],
    "bytecode": "6101006040523480156200001257600080fd5b50604051620011e9380380620011e98339810160408190526200003591620002d7565b84516200004a90600090602088019062000164565b5083516200006090600190602087019062000164565b5060ff831660805260a0829052600280546001600160a01b0383166001600160a01b03199182161790915560038054909116331790554660c052620000a4620000b3565b60e05250620004689350505050565b60007f8b73c3c69bb8fe3d512ecc4cf759cc79239f7b179b0ffacaa9a75d522b39400f6000604051620000e79190620003c4565b60408051918290038220828201825260018352603160f81b6020938401528151928301939093528101919091527fc89efdaa54c0f20c7adf612882df0950f5a951637e0307cdcb4c672f298b8bc660608201524660808201523060a082015260c00160405160208183030381529060405280519060200120905090565b828054620001729062000387565b90600052602060002090601f016020900481019282620001965760008555620001e1565b82601f10620001b157805160ff1916838001178555620001e1565b82800160010185558215620001e1579182015b82811115620001e1578251825591602001919060010190620001c4565b50620001ef929150620001f3565b5090565b5b80821115620001ef5760008155600101620001f4565b634e487b7160e01b600052604160045260246000fd5b600082601f8301126200023257600080fd5b81516001600160401b03808211156200024f576200024f6200020a565b604051601f8301601f19908116603f011681019082821181831017156200027a576200027a6200020a565b816040528381526020925086838588010111156200029757600080fd5b600091505b83821015620002bb57858201830151818301840152908201906200029c565b83821115620002cd5760008385830101525b9695505050505050565b600080600080600060a08688031215620002f057600080fd5b85516001600160401b03808211156200030857600080fd5b6200031689838a0162000220565b965060208801519150808211156200032d57600080fd5b506200033c8882890162000220565b945050604086015160ff811681146200035457600080fd5b6060870151608088015191945092506001600160a01b03811681146200037957600080fd5b809150509295509295909350565b600181811c908216806200039c57607f821691505b60208210811415620003be57634e487b7160e01b600052602260045260246000fd5b50919050565b600080835481600182811c915080831680620003e157607f831692505b60208084108214156200040257634e487b7160e01b86526022600452602486fd5b8180156200041957600181146200042b576200045a565b60ff198616895284890196506200045a565b60008a81526020902060005b86811015620004525781548b82015290850190830162000437565b505084890196505b509498975050505050505050565b60805160a05160c05160e051610d47620004a2600039600061052f015260006104fa01526000610178015260006101d90152610d476000f3fe608060405234801561001057600080fd5b50600436106101165760003560e01c80636f307dc3116100a25780639dc29fac116100715780639dc29fac1461029d578063a9059cbb146102b0578063d505accf146102c3578063dd62ed3e146102d6578063f851a4401461030157600080fd5b80636f307dc31461022a57806370a08231146102555780637ecebe001461027557806395d89b411461029557600080fd5b806323b872dd116100e957806323b872dd1461019a57806330adf81f146101ad578063313ce567146101d45780633644e5151461020d57806340c10f191461021557600080fd5b806306fdde031461011b578063095ea7b31461013957806318160ddd1461015c578063204f83f914610173575b600080fd5b610123610314565b6040516101309190610a36565b60405180910390f35b61014c610147366004610aa7565b6103a2565b6040519015158152602001610130565b61016560045481565b604051908152602001610130565b6101657f000000000000000000000000000000000000000000000000000000000000000081565b61014c6101a8366004610ad1565b61040e565b6101657f6e71edae12b1b97f4d1f60370fef10105fa2faae0126114a169c64845d6126c981565b6101fb7f000000000000000000000000000000000000000000000000000000000000000081565b60405160ff9091168152602001610130565b6101656104f6565b610228610223366004610aa7565b610551565b005b60025461023d906001600160a01b031681565b6040516001600160a01b039091168152602001610130565b610165610263366004610b0d565b60056020526000908152604090205481565b610165610283366004610b0d565b60076020526000908152604090205481565b610123610601565b6102286102ab366004610aa7565b61060e565b61014c6102be366004610aa7565b6106c1565b6102286102d1366004610b2f565b610727565b6101656102e4366004610ba2565b600660209081526000928352604080842090915290825290205481565b60035461023d906001600160a01b031681565b6000805461032190610bd5565b80601f016020809104026020016040519081016040528092919081815260200182805461034d90610bd5565b801561039a5780601f1061036f5761010080835404028352916020019161039a565b820191906000526020600020905b81548152906001019060200180831161037d57829003601f168201915b505050505081565b3360008181526006602090815260408083206001600160a01b038716808552925280832085905551919290917f8c5be1e5ebec7d5bd14f71427d1e84f3dd0314c0f7b2291e5b200ac8c7c3b925906103fd9086815260200190565b60405180910390a350600192915050565b6001600160a01b038316600090815260066020908152604080832033845290915281205460001914610473576001600160a01b03841660009081526006602090815260408083203384529091528120805484929061046d908490610c26565b90915550505b6001600160a01b0384166000908152600560205260408120805484929061049b908490610c26565b90915550506001600160a01b0380841660008181526005602052604090819020805486019055519091861690600080516020610cf2833981519152906104e49086815260200190565b60405180910390a35060019392505050565b60007f0000000000000000000000000000000000000000000000000000000000000000461461052c57610527610987565b905090565b507f000000000000000000000000000000000000000000000000000000000000000090565b6003546001600160a01b031633146105a75760405162461bcd60e51b815260206004820152601460248201527339b2b73232b91036bab9ba1031329030b236b4b760611b60448201526064015b60405180910390fd5b80600460008282546105b99190610c3d565b90915550506001600160a01b038216600081815260056020908152604080832080548601905551848152600080516020610cf283398151915291015b60405180910390a35050565b6001805461032190610bd5565b6003546001600160a01b0316331461065f5760405162461bcd60e51b815260206004820152601460248201527339b2b73232b91036bab9ba1031329030b236b4b760611b604482015260640161059e565b6001600160a01b03821660009081526005602052604081208054839290610687908490610c26565b90915550506004805482900390556040518181526000906001600160a01b03841690600080516020610cf2833981519152906020016105f5565b336000908152600560205260408120805483919083906106e2908490610c26565b90915550506001600160a01b03831660008181526005602052604090819020805485019055513390600080516020610cf2833981519152906103fd9086815260200190565b428410156107775760405162461bcd60e51b815260206004820152601760248201527f5045524d49545f444541444c494e455f45585049524544000000000000000000604482015260640161059e565b60006107816104f6565b6001600160a01b0389811660008181526007602090815260409182902080546001810190915582517f6e71edae12b1b97f4d1f60370fef10105fa2faae0126114a169c64845d6126c98184015280840194909452938c166060840152608083018b905260a083019390935260c08083018a90528151808403909101815260e08301909152805192019190912061190160f01b6101008301526101028201929092526101228101919091526101420160408051601f198184030181528282528051602091820120600080855291840180845281905260ff88169284019290925260608301869052608083018590529092509060019060a0016020604051602081039080840390855afa15801561089a573d6000803e3d6000fd5b5050604051601f1901519150506001600160a01b038116158015906108d05750886001600160a01b0316816001600160a01b0316145b61091c5760405162461bcd60e51b815260206004820152601860248201527f494e56414c49445f5045524d49545f5349474e41545552450000000000000000604482015260640161059e565b6001600160a01b0390811660009081526006602090815260408083208b8516808552908352928190208a905551898152919350918a16917f8c5be1e5ebec7d5bd14f71427d1e84f3dd0314c0f7b2291e5b200ac8c7c3b925910160405180910390a350505050505050565b60007f8b73c3c69bb8fe3d512ecc4cf759cc79239f7b179b0ffacaa9a75d522b39400f60006040516109b99190610c55565b60408051918290038220828201825260018352603160f81b6020938401528151928301939093528101919091527fc89efdaa54c0f20c7adf612882df0950f5a951637e0307cdcb4c672f298b8bc660608201524660808201523060a082015260c00160405160208183030381529060405280519060200120905090565b600060208083528351808285015260005b81811015610a6357858101830151858201604001528201610a47565b81811115610a75576000604083870101525b50601f01601f1916929092016040019392505050565b80356001600160a01b0381168114610aa257600080fd5b919050565b60008060408385031215610aba57600080fd5b610ac383610a8b565b946020939093013593505050565b600080600060608486031215610ae657600080fd5b610aef84610a8b565b9250610afd60208501610a8b565b9150604084013590509250925092565b600060208284031215610b1f57600080fd5b610b2882610a8b565b9392505050565b600080600080600080600060e0888a031215610b4a57600080fd5b610b5388610a8b565b9650610b6160208901610a8b565b95506040880135945060608801359350608088013560ff81168114610b8557600080fd5b9699959850939692959460a0840135945060c09093013592915050565b60008060408385031215610bb557600080fd5b610bbe83610a8b565b9150610bcc60208401610a8b565b90509250929050565b600181811c90821680610be957607f821691505b60208210811415610c0a57634e487b7160e01b600052602260045260246000fd5b50919050565b634e487b7160e01b600052601160045260246000fd5b600082821015610c3857610c38610c10565b500390565b60008219821115610c5057610c50610c10565b500190565b600080835481600182811c915080831680610c7157607f831692505b6020808410821415610c9157634e487b7160e01b86526022600452602486fd5b818015610ca55760018114610cb657610ce3565b60ff19861689528489019650610ce3565b60008a81526020902060005b86811015610cdb5781548b820152908501908301610cc2565b505084890196505b50949897505050505050505056feddf252ad1be2c89b69c2b068fc378daa952ba7f163c4a11628f55a4df523b3efa26469706673582212205a28bd1124e5a9ec55fb242810cbbd52ec1b5c6188163dda5706b62f96fb000664736f6c634300080b0033",
    "sourcePath": "c:/Users/Julian/Documents/GitHub/bondable/Tokens/ZcToken.sol",
    "compiler": {
        "name": "solc",
        "version": "0.8.11+commit.d7f03943"
    },
    "functionHashes": {
        "DOMAIN_SEPARATOR()": "3644e515",
        "PERMIT_TYPEHASH()": "30adf81f",
        "admin()": "f851a440",
        "allowance(address,address)": "dd62ed3e",
        "approve(address,uint256)": "095ea7b3",
        "balanceOf(address)": "70a08231",
        "burn(address,uint256)": "9dc29fac",
        "decimals()": "313ce567",
        "maturity()": "204f83f9",
        "mint(address,uint256)": "40c10f19",
        "name()": "06fdde03",
        "nonces(address)": "7ecebe00",
        "permit(address,address,uint256,uint256,uint8,bytes32,bytes32)": "d505accf",
        "symbol()": "95d89b41",
        "totalSupply()": "18160ddd",
        "transfer(address,uint256)": "a9059cbb",
        "transferFrom(address,address,uint256)": "23b872dd",
        "underlying()": "6f307dc3"
    },
    "gasEstimates": {
        "creation": {
            "codeDepositCost": "679800",
            "executionCost": "infinite",
            "totalCost": "infinite"
        },
        "external": {
            "DOMAIN_SEPARATOR()": "infinite",
            "PERMIT_TYPEHASH()": "240",
            "admin()": "2447",
            "allowance(address,address)": "infinite",
            "approve(address,uint256)": "24545",
            "balanceOf(address)": "2564",
            "burn(address,uint256)": "infinite",
            "decimals()": "infinite",
            "maturity()": "infinite",
            "mint(address,uint256)": "infinite",
            "name()": "infinite",
            "nonces(address)": "2586",
            "permit(address,address,uint256,uint256,uint8,bytes32,bytes32)": "infinite",
            "symbol()": "infinite",
            "totalSupply()": "2363",
            "transfer(address,uint256)": "infinite",
            "transferFrom(address,address,uint256)": "infinite",
            "underlying()": "2360"
        },
        "internal": {
            "_burn(address,uint256)": "infinite",
            "_mint(address,uint256)": "infinite",
            "computeDomainSeparator()": "infinite"
        }
    }
}