{
    "contractName": "zcToken",
    "abi": [
        {
            "inputs": [
                {
                    "internalType": "string",
                    "name": "_name",
                    "type": "string"
                },
                {
                    "internalType": "string",
                    "name": "_symbol",
                    "type": "string"
                },
                {
                    "internalType": "uint8",
                    "name": "_decimals",
                    "type": "uint8"
                },
                {
                    "internalType": "uint128",
                    "name": "_maturity",
                    "type": "uint128"
                },
                {
                    "internalType": "address",
                    "name": "_underlying",
                    "type": "address"
                }
            ],
            "stateMutability": "nonpayable",
            "type": "constructor"
        },
        {
            "anonymous": false,
            "inputs": [
                {
                    "indexed": true,
                    "internalType": "address",
                    "name": "owner",
                    "type": "address"
                },
                {
                    "indexed": true,
                    "internalType": "address",
                    "name": "spender",
                    "type": "address"
                },
                {
                    "indexed": false,
                    "internalType": "uint256",
                    "name": "amount",
                    "type": "uint256"
                }
            ],
            "name": "Approval",
            "type": "event"
        },
        {
            "anonymous": false,
            "inputs": [
                {
                    "indexed": true,
                    "internalType": "address",
                    "name": "from",
                    "type": "address"
                },
                {
                    "indexed": true,
                    "internalType": "address",
                    "name": "to",
                    "type": "address"
                },
                {
                    "indexed": false,
                    "internalType": "uint256",
                    "name": "amount",
                    "type": "uint256"
                }
            ],
            "name": "Transfer",
            "type": "event"
        },
        {
            "inputs": [],
            "name": "DOMAIN_SEPARATOR",
            "outputs": [
                {
                    "internalType": "bytes32",
                    "name": "",
                    "type": "bytes32"
                }
            ],
            "stateMutability": "view",
            "type": "function"
        },
        {
            "inputs": [],
            "name": "PERMIT_TYPEHASH",
            "outputs": [
                {
                    "internalType": "bytes32",
                    "name": "",
                    "type": "bytes32"
                }
            ],
            "stateMutability": "view",
            "type": "function"
        },
        {
            "inputs": [],
            "name": "admin",
            "outputs": [
                {
                    "internalType": "address",
                    "name": "",
                    "type": "address"
                }
            ],
            "stateMutability": "view",
            "type": "function"
        },
        {
            "inputs": [
                {
                    "internalType": "address",
                    "name": "",
                    "type": "address"
                },
                {
                    "internalType": "address",
                    "name": "",
                    "type": "address"
                }
            ],
            "name": "allowance",
            "outputs": [
                {
                    "internalType": "uint256",
                    "name": "",
                    "type": "uint256"
                }
            ],
            "stateMutability": "view",
            "type": "function"
        },
        {
            "inputs": [
                {
                    "internalType": "address",
                    "name": "spender",
                    "type": "address"
                },
                {
                    "internalType": "uint256",
                    "name": "amount",
                    "type": "uint256"
                }
            ],
            "name": "approve",
            "outputs": [
                {
                    "internalType": "bool",
                    "name": "",
                    "type": "bool"
                }
            ],
            "stateMutability": "nonpayable",
            "type": "function"
        },
        {
            "inputs": [
                {
                    "internalType": "address",
                    "name": "",
                    "type": "address"
                }
            ],
            "name": "balanceOf",
            "outputs": [
                {
                    "internalType": "uint256",
                    "name": "",
                    "type": "uint256"
                }
            ],
            "stateMutability": "view",
            "type": "function"
        },
        {
            "inputs": [
                {
                    "internalType": "address",
                    "name": "from",
                    "type": "address"
                },
                {
                    "internalType": "uint256",
                    "name": "amount",
                    "type": "uint256"
                }
            ],
            "name": "burn",
            "outputs": [],
            "stateMutability": "nonpayable",
            "type": "function"
        },
        {
            "inputs": [],
            "name": "decimals",
            "outputs": [
                {
                    "internalType": "uint8",
                    "name": "",
                    "type": "uint8"
                }
            ],
            "stateMutability": "view",
            "type": "function"
        },
        {
            "inputs": [],
            "name": "maturity",
            "outputs": [
                {
                    "internalType": "uint128",
                    "name": "",
                    "type": "uint128"
                }
            ],
            "stateMutability": "view",
            "type": "function"
        },
        {
            "inputs": [
                {
                    "internalType": "address",
                    "name": "to",
                    "type": "address"
                },
                {
                    "internalType": "uint256",
                    "name": "amount",
                    "type": "uint256"
                }
            ],
            "name": "mint",
            "outputs": [],
            "stateMutability": "nonpayable",
            "type": "function"
        },
        {
            "inputs": [],
            "name": "name",
            "outputs": [
                {
                    "internalType": "string",
                    "name": "",
                    "type": "string"
                }
            ],
            "stateMutability": "view",
            "type": "function"
        },
        {
            "inputs": [
                {
                    "internalType": "address",
                    "name": "",
                    "type": "address"
                }
            ],
            "name": "nonces",
            "outputs": [
                {
                    "internalType": "uint256",
                    "name": "",
                    "type": "uint256"
                }
            ],
            "stateMutability": "view",
            "type": "function"
        },
        {
            "inputs": [
                {
                    "internalType": "address",
                    "name": "owner",
                    "type": "address"
                },
                {
                    "internalType": "address",
                    "name": "spender",
                    "type": "address"
                },
                {
                    "internalType": "uint256",
                    "name": "value",
                    "type": "uint256"
                },
                {
                    "internalType": "uint256",
                    "name": "deadline",
                    "type": "uint256"
                },
                {
                    "internalType": "uint8",
                    "name": "v",
                    "type": "uint8"
                },
                {
                    "internalType": "bytes32",
                    "name": "r",
                    "type": "bytes32"
                },
                {
                    "internalType": "bytes32",
                    "name": "s",
                    "type": "bytes32"
                }
            ],
            "name": "permit",
            "outputs": [],
            "stateMutability": "nonpayable",
            "type": "function"
        },
        {
            "inputs": [],
            "name": "symbol",
            "outputs": [
                {
                    "internalType": "string",
                    "name": "",
                    "type": "string"
                }
            ],
            "stateMutability": "view",
            "type": "function"
        },
        {
            "inputs": [],
            "name": "totalSupply",
            "outputs": [
                {
                    "internalType": "uint256",
                    "name": "",
                    "type": "uint256"
                }
            ],
            "stateMutability": "view",
            "type": "function"
        },
        {
            "inputs": [
                {
                    "internalType": "address",
                    "name": "to",
                    "type": "address"
                },
                {
                    "internalType": "uint256",
                    "name": "amount",
                    "type": "uint256"
                }
            ],
            "name": "transfer",
            "outputs": [
                {
                    "internalType": "bool",
                    "name": "",
                    "type": "bool"
                }
            ],
            "stateMutability": "nonpayable",
            "type": "function"
        },
        {
            "inputs": [
                {
                    "internalType": "address",
                    "name": "from",
                    "type": "address"
                },
                {
                    "internalType": "address",
                    "name": "to",
                    "type": "address"
                },
                {
                    "internalType": "uint256",
                    "name": "amount",
                    "type": "uint256"
                }
            ],
            "name": "transferFrom",
            "outputs": [
                {
                    "internalType": "bool",
                    "name": "",
                    "type": "bool"
                }
            ],
            "stateMutability": "nonpayable",
            "type": "function"
        },
        {
            "inputs": [],
            "name": "underlying",
            "outputs": [
                {
                    "internalType": "address",
                    "name": "",
                    "type": "address"
                }
            ],
            "stateMutability": "view",
            "type": "function"
        }
    ],
    "bytecode": "6101006040523480156200001257600080fd5b5060405162001236380380620012368339810160408190526200003591620002fc565b84516200004a9060009060208801906200016c565b508351620000609060019060208701906200016c565b5060ff83166080526001600160801b03821660a052600280546001600160a01b0383166001600160a01b03199182161790915560038054909116331790554660c052620000ac620000bb565b60e05250620004949350505050565b60007f8b73c3c69bb8fe3d512ecc4cf759cc79239f7b179b0ffacaa9a75d522b39400f6000604051620000ef9190620003f0565b60408051918290038220828201825260018352603160f81b6020938401528151928301939093528101919091527fc89efdaa54c0f20c7adf612882df0950f5a951637e0307cdcb4c672f298b8bc660608201524660808201523060a082015260c00160405160208183030381529060405280519060200120905090565b8280546200017a90620003b3565b90600052602060002090601f0160209004810192826200019e5760008555620001e9565b82601f10620001b957805160ff1916838001178555620001e9565b82800160010185558215620001e9579182015b82811115620001e9578251825591602001919060010190620001cc565b50620001f7929150620001fb565b5090565b5b80821115620001f75760008155600101620001fc565b634e487b7160e01b600052604160045260246000fd5b600082601f8301126200023a57600080fd5b81516001600160401b038082111562000257576200025762000212565b604051601f8301601f19908116603f0116810190828211818310171562000282576200028262000212565b816040528381526020925086838588010111156200029f57600080fd5b600091505b83821015620002c35785820183015181830184015290820190620002a4565b83821115620002d55760008385830101525b9695505050505050565b80516001600160a01b0381168114620002f757600080fd5b919050565b600080600080600060a086880312156200031557600080fd5b85516001600160401b03808211156200032d57600080fd5b6200033b89838a0162000228565b965060208801519150808211156200035257600080fd5b50620003618882890162000228565b945050604086015160ff811681146200037957600080fd5b60608701519093506001600160801b03811681146200039757600080fd5b9150620003a760808701620002df565b90509295509295909350565b600181811c90821680620003c857607f821691505b60208210811415620003ea57634e487b7160e01b600052602260045260246000fd5b50919050565b600080835481600182811c9150808316806200040d57607f831692505b60208084108214156200042e57634e487b7160e01b86526022600452602486fd5b818015620004455760018114620004575762000486565b60ff1986168952848901965062000486565b60008a81526020902060005b868110156200047e5781548b82015290850190830162000463565b505084890196505b509498975050505050505050565b60805160a05160c05160e051610d68620004ce60003960006105500152600061051b01526000610178015260006101fa0152610d686000f3fe608060405234801561001057600080fd5b50600436106101165760003560e01c80636f307dc3116100a25780639dc29fac116100715780639dc29fac146102be578063a9059cbb146102d1578063d505accf146102e4578063dd62ed3e146102f7578063f851a4401461032257600080fd5b80636f307dc31461024b57806370a08231146102765780637ecebe001461029657806395d89b41146102b657600080fd5b806323b872dd116100e957806323b872dd146101bb57806330adf81f146101ce578063313ce567146101f55780633644e5151461022e57806340c10f191461023657600080fd5b806306fdde031461011b578063095ea7b31461013957806318160ddd1461015c578063204f83f914610173575b600080fd5b610123610335565b6040516101309190610a57565b60405180910390f35b61014c610147366004610ac8565b6103c3565b6040519015158152602001610130565b61016560045481565b604051908152602001610130565b61019a7f000000000000000000000000000000000000000000000000000000000000000081565b6040516fffffffffffffffffffffffffffffffff9091168152602001610130565b61014c6101c9366004610af2565b61042f565b6101657f6e71edae12b1b97f4d1f60370fef10105fa2faae0126114a169c64845d6126c981565b61021c7f000000000000000000000000000000000000000000000000000000000000000081565b60405160ff9091168152602001610130565b610165610517565b610249610244366004610ac8565b610572565b005b60025461025e906001600160a01b031681565b6040516001600160a01b039091168152602001610130565b610165610284366004610b2e565b60056020526000908152604090205481565b6101656102a4366004610b2e565b60076020526000908152604090205481565b610123610622565b6102496102cc366004610ac8565b61062f565b61014c6102df366004610ac8565b6106e2565b6102496102f2366004610b50565b610748565b610165610305366004610bc3565b600660209081526000928352604080842090915290825290205481565b60035461025e906001600160a01b031681565b6000805461034290610bf6565b80601f016020809104026020016040519081016040528092919081815260200182805461036e90610bf6565b80156103bb5780601f10610390576101008083540402835291602001916103bb565b820191906000526020600020905b81548152906001019060200180831161039e57829003601f168201915b505050505081565b3360008181526006602090815260408083206001600160a01b038716808552925280832085905551919290917f8c5be1e5ebec7d5bd14f71427d1e84f3dd0314c0f7b2291e5b200ac8c7c3b9259061041e9086815260200190565b60405180910390a350600192915050565b6001600160a01b038316600090815260066020908152604080832033845290915281205460001914610494576001600160a01b03841660009081526006602090815260408083203384529091528120805484929061048e908490610c47565b90915550505b6001600160a01b038416600090815260056020526040812080548492906104bc908490610c47565b90915550506001600160a01b0380841660008181526005602052604090819020805486019055519091861690600080516020610d13833981519152906105059086815260200190565b60405180910390a35060019392505050565b60007f0000000000000000000000000000000000000000000000000000000000000000461461054d576105486109a8565b905090565b507f000000000000000000000000000000000000000000000000000000000000000090565b6003546001600160a01b031633146105c85760405162461bcd60e51b815260206004820152601460248201527339b2b73232b91036bab9ba1031329030b236b4b760611b60448201526064015b60405180910390fd5b80600460008282546105da9190610c5e565b90915550506001600160a01b038216600081815260056020908152604080832080548601905551848152600080516020610d1383398151915291015b60405180910390a35050565b6001805461034290610bf6565b6003546001600160a01b031633146106805760405162461bcd60e51b815260206004820152601460248201527339b2b73232b91036bab9ba1031329030b236b4b760611b60448201526064016105bf565b6001600160a01b038216600090815260056020526040812080548392906106a8908490610c47565b90915550506004805482900390556040518181526000906001600160a01b03841690600080516020610d1383398151915290602001610616565b33600090815260056020526040812080548391908390610703908490610c47565b90915550506001600160a01b03831660008181526005602052604090819020805485019055513390600080516020610d138339815191529061041e9086815260200190565b428410156107985760405162461bcd60e51b815260206004820152601760248201527f5045524d49545f444541444c494e455f4558504952454400000000000000000060448201526064016105bf565b60006107a2610517565b6001600160a01b0389811660008181526007602090815260409182902080546001810190915582517f6e71edae12b1b97f4d1f60370fef10105fa2faae0126114a169c64845d6126c98184015280840194909452938c166060840152608083018b905260a083019390935260c08083018a90528151808403909101815260e08301909152805192019190912061190160f01b6101008301526101028201929092526101228101919091526101420160408051601f198184030181528282528051602091820120600080855291840180845281905260ff88169284019290925260608301869052608083018590529092509060019060a0016020604051602081039080840390855afa1580156108bb573d6000803e3d6000fd5b5050604051601f1901519150506001600160a01b038116158015906108f15750886001600160a01b0316816001600160a01b0316145b61093d5760405162461bcd60e51b815260206004820152601860248201527f494e56414c49445f5045524d49545f5349474e4154555245000000000000000060448201526064016105bf565b6001600160a01b0390811660009081526006602090815260408083208b8516808552908352928190208a905551898152919350918a16917f8c5be1e5ebec7d5bd14f71427d1e84f3dd0314c0f7b2291e5b200ac8c7c3b925910160405180910390a350505050505050565b60007f8b73c3c69bb8fe3d512ecc4cf759cc79239f7b179b0ffacaa9a75d522b39400f60006040516109da9190610c76565b60408051918290038220828201825260018352603160f81b6020938401528151928301939093528101919091527fc89efdaa54c0f20c7adf612882df0950f5a951637e0307cdcb4c672f298b8bc660608201524660808201523060a082015260c00160405160208183030381529060405280519060200120905090565b600060208083528351808285015260005b81811015610a8457858101830151858201604001528201610a68565b81811115610a96576000604083870101525b50601f01601f1916929092016040019392505050565b80356001600160a01b0381168114610ac357600080fd5b919050565b60008060408385031215610adb57600080fd5b610ae483610aac565b946020939093013593505050565b600080600060608486031215610b0757600080fd5b610b1084610aac565b9250610b1e60208501610aac565b9150604084013590509250925092565b600060208284031215610b4057600080fd5b610b4982610aac565b9392505050565b600080600080600080600060e0888a031215610b6b57600080fd5b610b7488610aac565b9650610b8260208901610aac565b95506040880135945060608801359350608088013560ff81168114610ba657600080fd5b9699959850939692959460a0840135945060c09093013592915050565b60008060408385031215610bd657600080fd5b610bdf83610aac565b9150610bed60208401610aac565b90509250929050565b600181811c90821680610c0a57607f821691505b60208210811415610c2b57634e487b7160e01b600052602260045260246000fd5b50919050565b634e487b7160e01b600052601160045260246000fd5b600082821015610c5957610c59610c31565b500390565b60008219821115610c7157610c71610c31565b500190565b600080835481600182811c915080831680610c9257607f831692505b6020808410821415610cb257634e487b7160e01b86526022600452602486fd5b818015610cc65760018114610cd757610d04565b60ff19861689528489019650610d04565b60008a81526020902060005b86811015610cfc5781548b820152908501908301610ce3565b505084890196505b50949897505050505050505056feddf252ad1be2c89b69c2b068fc378daa952ba7f163c4a11628f55a4df523b3efa264697066735822122071f79a246fbe1558c85caf9f6a9d48b1922ac18c66f9277f32d15e5cba5417ba64736f6c634300080b0033",
    "sourcePath": "c:/Users/Julian/Documents/GitHub/bondable/Tokens/ZcToken.sol",
    "compiler": {
        "name": "solc",
        "version": "0.8.11+commit.d7f03943"
    },
    "functionHashes": {
        "DOMAIN_SEPARATOR()": "3644e515",
        "PERMIT_TYPEHASH()": "30adf81f",
        "admin()": "f851a440",
        "allowance(address,address)": "dd62ed3e",
        "approve(address,uint256)": "095ea7b3",
        "balanceOf(address)": "70a08231",
        "burn(address,uint256)": "9dc29fac",
        "decimals()": "313ce567",
        "maturity()": "204f83f9",
        "mint(address,uint256)": "40c10f19",
        "name()": "06fdde03",
        "nonces(address)": "7ecebe00",
        "permit(address,address,uint256,uint256,uint8,bytes32,bytes32)": "d505accf",
        "symbol()": "95d89b41",
        "totalSupply()": "18160ddd",
        "transfer(address,uint256)": "a9059cbb",
        "transferFrom(address,address,uint256)": "23b872dd",
        "underlying()": "6f307dc3"
    },
    "gasEstimates": {
        "creation": {
            "codeDepositCost": "686400",
            "executionCost": "infinite",
            "totalCost": "infinite"
        },
        "external": {
            "DOMAIN_SEPARATOR()": "infinite",
            "PERMIT_TYPEHASH()": "240",
            "admin()": "2447",
            "allowance(address,address)": "infinite",
            "approve(address,uint256)": "24545",
            "balanceOf(address)": "2564",
            "burn(address,uint256)": "infinite",
            "decimals()": "infinite",
            "maturity()": "infinite",
            "mint(address,uint256)": "infinite",
            "name()": "infinite",
            "nonces(address)": "2586",
            "permit(address,address,uint256,uint256,uint8,bytes32,bytes32)": "infinite",
            "symbol()": "infinite",
            "totalSupply()": "2363",
            "transfer(address,uint256)": "infinite",
            "transferFrom(address,address,uint256)": "infinite",
            "underlying()": "2360"
        },
        "internal": {
            "_burn(address,uint256)": "infinite",
            "_mint(address,uint256)": "infinite",
            "computeDomainSeparator()": "infinite"
        }
    }
}